:100000000EC026C225C0FBC123C022C021C020C013
:100010001FC01EC01DC01CC01BC01AC019C01124A7
:100020001FBECFEDCDBF10E0A0E6B0E0E4EAF4E003
:1000300002C005900D92A238B107D9F720E0A2E8DE
:10004000B0E001C01D92A638B207E1F7A7D028C2E0
:10005000D7CF80B58E7F80BD86B1866086B98DE0B2
:1000600087B986B1806C86B9369B02C00000FCCF90
:1000700081E287B9A29A86B1806C86B9369B02C0AC
:100080000000FCCFA29885B1089580B58E7F80BD19
:10009000A59AC19A8DE08A95F1F7000086B1866035
:1000A00086B98DE087B986B1806C86B9369B02C06F
:1000B0000000FCCF85B180E287B986B1806C86B93B
:1000C000369B02C00000FCCF85B1C19808951F93F4
:1000D000CF93DF93E2E6F0E020E030E090E01FEF26
:1000E000D0E8BC01022E02C0759567950A94E2F72C
:1000F00061707727C3E040B5437F40BD78946115B8
:10010000710589F44AB54F7B4ABD49B74F7B49BF5A
:10011000F894C098AFE3BCE91197F1F700C0000074
:10012000C15049F71EC010938500D09361001FBCD9
:1001300012BE49B7406449BF40E050E0A091610061
:10014000A111FCCFA081B181A40FB51FAC91A093E8
:100150008500D09361004F5F5F4F4730510591F2AA
:10016000EDCFAFE5BAEE1197F1F700C00000AFE5B3
:10017000BAEE1197F1F700C00000AFE5BAEE1197A3
:10018000F1F700C000002F5F3F4F32962430310559
:1001900009F0A7CFDF91CF911F9108952FE088E15B
:1001A00090E00FB6F894A89581BD0FBE21BDF894DC
:1001B0009FEF90BD479A379A17BC80E886BD16BC62
:1001C0008BED87BB18BA80B58B7F80BD98BF12BE00
:1001D00082E08ABD87E689BD81E083BF80B5877FE5
:1001E00080BD1FBC8BE88EBD86E080BF8FE39CE99D
:1001F0000197F1F700C0000098E1F92E08E110E046
:100200002FE0E22ECFE0D0E08FE0D82EA8958091AD
:100210006000873808F42AC00FB6F894F1BC11BC0E
:100220000FBE80B58D6080BD85B78C7F85BF8BB7D5
:1002300080648BBF85B7877E806185BF85B780620C
:1002400085BF85B7846885BF8B7F85BF7894889587
:1002500085B78F7D85BFF8948BB78F7B8BBF14BE1E
:100260000FB6F894A89501BD0FBEE1BC8FE39CE9E1
:100270000197F1F700C0000008DF90E00996BE0189
:10028000E8D06093830080918300882309F4BECF77
:10029000E0DE8093600080916000863708F0B6CF82
:1002A0008FE697E10197F1F700C00000D2DE80935E
:1002B0006000809160008E3020F4809183008F7008
:1002C00007C0809160008B3230F480918300887089
:1002D000809383001AC080916000843420F4809160
:1002E00083008470F5CF809160008D3520F480917B
:1002F00083008270EDCF80916000863720F480917A
:1003000083008170E5CF109283008FE39CE9019711
:10031000F1F700C000009DDE8093600080916000D6
:100320008E3020F4809183008F7007C08091600030
:100330008B3230F4809183008870809383001AC0E0
:1003400080916000843420F4809183008470F5CF24
:10035000809160008D3520F4809183008270EDCF14
:1003600080916000863720F4809183008170E5CF12
:100370001092830080918300882319F0809183007C
:10038000A6DED092840065DE8093600080916000DC
:100390008637F0F4A8958FE59AEE0197F1F700C043
:1003A00000008FE59AEE0197F1F700C000008FE79B
:1003B0009EE30197F1F700C000004BDE80936000E0
:1003C0008091840087FDE2CF815080938400DECF4E
:1003D0008091840087FF1ACF58DE90E00996BE0115
:1003E00038D06093820080918200882309F40ECF78
:1003F0008091830090918200892369DE05CF1F924E
:100400000F920FB60F9211248F939F93C0981FBC29
:100410000000000000000000000000001FBC12BE31
:100420009091850080916100892319F08AB58064DC
:1004300002C08AB58F7B8ABD8091610086958093CA
:1004400061009F918F910F900FBE0F901F90189594
:10045000189597FB072E16F4009406D077FD08D068
:100460000BD007FC05D03EF4909581959F4F0895E1
:10047000709561957F4F0895AA1BBB1B51E107C082
:10048000AA1FBB1FA617B70710F0A61BB70B881F24
:10049000991F5A95A9F780959095BC01CD010895B3
:0404A000F894FFCFFE
:1004A400FF806A00700076007C001080402010AA53
:1004B400041041041041020408102040400310437A
:0204C40040AA4C
:00000001FF
